:020000040000fa
:080000000020040000000000d4
:020000040000fa
:04000800c42200000e
:020000040000fa
:04000c00c42200000a
:020000040000fa
:04001000c422000006
:020000040000fa
:04001400c422000002
:020000040000fa
:04001800c4220000fe
:020000040000fa
:04001c00c4220000fa
:020000040000fa
:04002000c4220000f6
:020000040000fa
:04002400c4220000f2
:020000040000fa
:04002800c4220000ee
:020000040000fa
:04002c00c4220000ea
:020000040000fa
:04003000c4220000e6
:020000040000fa
:04003400c4220000e2
:020000040000fa
:04003800c4220000de
:020000040000fa
:04003c00c4220000da
:020000040000fa
:04004000c4220000d6
:020000040000fa
:04004400c4220000d2
:020000040000fa
:04004800c4220000ce
:020000040000fa
:04004c00c4220000ca
:020000040000fa
:04005000c4220000c6
:020000040000fa
:04005400c4220000c2
:020000040000fa
:04005800c4220000be
:020000040000fa
:04005c00c4220000ba
:020000040000fa
:04006000c4220000b6
:020000040000fa
:04006400c4220000b2
:020000040000fa
:04006800c4220000ae
:020000040000fa
:04006c00c4220000aa
:020000040000fa
:04007000c4220000a6
:020000040000fa
:04007400c4220000a2
:020000040000fa
:04007800c42200009e
:020000040000fa
:04007c00c42200009a
:020000040000fa
:04008000c422000096
:020000040000fa
:04008400c422000092
:020000040000fa
:04008800c42200008e
:020000040000fa
:04008c00c42200008a
:020000040000fa
:04009000c422000086
:020000040000fa
:04009400c422000082
:020000040000fa
:04009800c42200007e
:020000040000fa
:04009c00c42200007a
:020000040000fa
:0400a000c422000076
:020000040000fa
:0400a400c422000072
:020000040000fa
:0400a800c42200006e
:020000040000fa
:0400ac00c42200006a
:020000040000fa
:0400b000c422000066
:020000040000fa
:0400b400c422000062
:020000040000fa
:0400b800c42200005e
:020000040000fa
:0400bc00c42200005a
:020000040000fa
:0400c000c422000056
:020000040000fa
:0400c400c422000052
:020000040000fa
:0400c800c42200004e
:020000040000fa
:0400cc00c42200004a
:020000040000fa
:0400d000c422000046
:020000040000fa
:0400d400c422000042
:020000040000fa
:0400d800c42200003e
:020000040000fa
:0400dc00c42200003a
:020000040000fa
:0400e000c422000036
:020000040000fa
:0400e400c422000032
:020000040000fa
:0400e800c42200002e
:020000040000fa
:0400ec00c42200002a
:020000040000fa
:0400f000c422000026
:020000040000fa
:0400f400c422000022
:020000040000fa
:0400f800c42200001e
:020000040000fa
:0400fc00c42200001a
:020000040000fa
:04010000c422000015
:020000040000fa
:04010400c422000011
:020000040000fa
:04010800c42200000d
:020000040000fa
:04010c00c422000009
:020000040000fa
:04011000c422000005
:020000040000fa
:04011400c422000001
:020000040000fa
:04011800c4220000fd
:020000040000fa
:04011c00c4220000f9
:020000040000fa
:04012000c4220000f5
:020000040000fa
:04012400c4220000f1
:020000040000fa
:04012800c4220000ed
:020000040000fa
:04012c00c4220000e9
:020000040000fa
:04013000c4220000e5
:020000040000fa
:04013400c4220000e1
:020000040000fa
:04013800c4220000dd
:020000040000fa
:04013c00c4220000d9
:020000040000fa
:04014000c4220000d5
:020000040000fa
:04014400c4220000d1
:020000040000fa
:04014800c4220000cd
:020000040000fa
:04014c00c4220000c9
:020000040000fa
:04015000c4220000c5
:020000040000fa
:04015400c4220000c1
:020000040000fa
:04015800c4220000bd
:020000040000fa
:04015c00c4220000b9
:020000040000fa
:04016000c4220000b5
:020000040000fa
:04016400c4220000b1
:020000040000fa
:04016800c4220000ad
:020000040000fa
:04016c00c4220000a9
:020000040000fa
:04017000c4220000a5
:020000040000fa
:04017400c4220000a1
:020000040000fa
:04017800c42200009d
:020000040000fa
:04017c00c422000099
:020000040000fa
:04018000a8220000b1
:020000040000fa
:04018400c422000091
:020000040000fa
:04018800c42200008d
:020000040000fa
:04018c00c422000089
:020000040000fa
:04019000c422000085
:020000040000fa
:04019400c422000081
:020000040000fa
:04019800c42200007d
:020000040000fa
:04019c00c422000079
:020000040000fa
:04020800c42200000c
:020000040000fa
:04020c00c422000008
:020000040000fa
:04021000c422000004
:020000040000fa
:04021400c422000000
:020000040000fa
:04021800c4220000fc
:020000040000fa
:04021c00c4220000f8
:020000040000fa
:04022000c4220000f4
:020000040000fa
:04022400c4220000f0
:020000040000fa
:04022800c4220000ec
:020000040000fa
:04022c00c4220000e8
:020000040000fa
:04023000c4220000e4
:020000040000fa
:04023400c4220000e0
:020000040000fa
:04023800c4220000dc
:020000040000fa
:04023c00c4220000d8
:020000040000fa
:04024000c4220000d4
:020000040000fa
:04024400c4220000d0
:020000040000fa
:04024800c4220000cc
:020000040000fa
:04024c00c4220000c8
:020000040000fa
:04025000c4220000c4
:020000040000fa
:04025400c4220000c0
:020000040000fa
:04025800c4220000bc
:020000040000fa
:04025c00c4220000b8
:020000040000fa
:04026000c4220000b4
:020000040000fa
:04026400c4220000b0
:020000040000fa
:04026800c4220000ac
:020000040000fa
:04026c00c4220000a8
:020000040000fa
:04027000c4220000a4
:020000040000fa
:04027400c4220000a0
:020000040000fa
:04027800c42200009c
:020000040000fa
:04027c00c422000098
:020000040000fa
:04028000c422000094
:020000040000fa
:04028400c422000090
:020000040000fa
:04028800c42200008c
:020000040000fa
:04028c00c422000088
:020000040000fa
:04029000c422000084
:020000040000fa
:04029400c422000080
:020000040000fa
:04029800c42200007c
:020000040000fa
:04029c00c422000078
:020000040000fa
:0402a000c422000074
:020000040000fa
:0402a400c422000070
:020000040000fa
:0402a800c42200006c
:020000040000fa
:0402ac00c422000068
:020000040000fa
:0402b000c422000064
:020000040000fa
:0402b400c422000060
:020000040000fa
:0402b800c42200005c
:020000040000fa
:0402bc00c422000058
:020000040000fa
:0402c000c422000054
:020000040000fa
:0402c400c422000050
:020000040000fa
:0402c800c42200004c
:020000040000fa
:0402cc00c422000048
:020000040000fa
:0402d000c422000044
:020000040000fa
:0402d400c422000040
:020000040000fa
:0402d800c42200003c
:020000040000fa
:0402dc00c422000038
:020000040000fa
:0402e000c422000034
:020000040000fa
:0402e400c422000030
:020000040000fa
:0402e800c42200002c
:020000040000fa
:0402ec00c422000028
:020000040000fa
:0402f000c422000024
:020000040000fa
:0402f400c422000020
:020000040000fa
:0402f800c42200001c
:020000040000fa
:0402fc00c422000018
:020000040000fa
:04030000c422000013
:020000040000fa
:04030400c42200000f
:020000040000fa
:04030800c42200000b
:020000040000fa
:04030c00c422000007
:020000040000fa
:04031000c422000003
:020000040000fa
:04031400c4220000ff
:020000040000fa
:04031800c4220000fb
:020000040000fa
:04031c00c4220000f7
:020000040000fa
:04032000c4220000f3
:020000040000fa
:04032400c4220000ef
:020000040000fa
:04032800c4220000eb
:020000040000fa
:04032c00c4220000e7
:020000040000fa
:04033000c4220000e3
:020000040000fa
:04033400c4220000df
:020000040000fa
:04033800c4220000db
:020000040000fa
:04033c00c4220000d7
:020000040000fa
:04034000c4220000d3
:020000040000fa
:04034400c4220000cf
:020000040000fa
:04034800c4220000cb
:020000040000fa
:04034c00c4220000c7
:020000040000fa
:04035000c4220000c3
:020000040000fa
:04035400c4220000bf
:020000040000fa
:04035800c4220000bb
:020000040000fa
:04035c00c4220000b7
:020000040000fa
:04036000c4220000b3
:020000040000fa
:04036400c4220000af
:020000040000fa
:04036800c4220000ab
:020000040000fa
:04036c00c4220000a7
:020000040000fa
:04037000c4220000a3
:020000040000fa
:04037400c42200009f
:020000040000fa
:04037800c42200009b
:020000040000fa
:04037c00c422000097
:020000040000fa
:04038000c422000093
:020000040000fa
:04038400c42200008f
:020000040000fa
:04038800c42200008b
:020000040000fa
:04038c00c422000087
:020000040000fa
:04039000c422000083
:020000040000fa
:04039400c42200007f
:020000040000fa
:04039800c42200007b
:020000040000fa
:04039c00c422000077
:020000040000fa
:10400000af442300ae7e24000e01880000000000b3
:10401000000020000000e00002003200000120004b
:104020002002880014000700590107000000e0008a
:1040300003003a00e0572b00010020000200370087
:104040000000200001002000810f700001003200fc
:1040500014000700000020000000e0000200320011
:104060000000020000000000e0bd020000000000af
:104070000040da000000fe004440a9002057200064
:104080000000e0000300320000002000a0018800d2
:104090004440a800000006008a1f78008b1f7800ab
:1040a0000000060091018800800478000000eb0009
:1040b0001a003700e284440032a0b4009905ba0027
:1040c000e284440032a0b4009906ba00e2844400bd
:1040d00032a0b4000006eb00476fde00fd07b2001f
:1040e000636ce10003003a00ebff07000000eb0007
:1040f0000a003700606ce10004003a00005deb004c
:104100008b05e900fdff3e00040037006168e10017
:10411000010032000086eb000b00070019c7ba004f
:104120001905ba000e04e00003003a000a00e0009e
:10413000e0ff3a0000000600fe07b2009e01880082
:104140008a047800f5ff3700395dba008b05e90075
:104150000c003200295dba008b05e900080032002e
:104160000c00e00003003a00e284440032a0b400f6
:10417000f5ff370019ddba008b05e900faff3a00b8
:104180008904e800e184440032a0b4000000060085
:10419000069e040000000000169e040000000000bf
:1041a0000e9e040000000000fe9d040000000000c0
:1041b000769e040000000000b05e040000000000d5
:1041c000465f04000000000064640400000000007a
:1041d000d263040000000000525f040000000000f1
:1041e000a85e0400000000001e5f04000000000044
:1041f000ac5f0400000000007665040000000000d1
:10420000285f040000000000206604000000000099
:1042100044650400000000000c650400000000007c
:104220001a62040000000000d45e040000000000d8
:104230001264040000000000b85e040000000000ea
:10424000c4610400000000009ca004000000000005
:1042500076900400000000002e9004000000000092
:10426000acbe0400000000009cbe04000000000082
:104270008cbe0400000000007cbe040000000000b2
:104280006ebe0400000000001abe04000000000022
:1042900064be0400000000005cbe040000000000da
:1042a0003e8c040000000000ba8b040000000000f7
:1042b000b28b040000000000e68b04000000000048
:1042c000d88b040000000000d08b04000000000028
:1042d000c68b040000000000c08b0400000000003a
:1042e000828c040000000000f48b04000000000039
:1042f0002e8c040000000000348c0400000000003c
:10430000d075040000000000e47504000000000007
:10431000ca71040000000000827104000000000067
:10432000f6750400000000000275040000000000a3
:104330004e72040000000000407404000000000001
:10434000fc740400000000007c7604000000000003
:10435000d271040000000000207c04000000000076
:10436000707c040000000000ba7b04000000000024
:10437000827b0400000000009c7d0400000000001f
:10438000ca7c0400000000006a7d040000000000f8
:104390008a7d040000000000087f04000000000087
:1043a000a47c0400000000008868040000000000f5
:1043b00082680400000000008e6804000000000015
:1043c000906e040000000000a26e040000000000d7
:1043d000206c0400000000002069040000000000c0
:1043e000006b040000000000d66c04000000000018
:1043f000966a040000000000b2680400000000009b
:10440000e0b1040000000000f8b10400000000006a
:10441000d8b1040000000000d2b104000000000088
:1044200054be0400000000004cbe04000000000068
:1044300044be0400000000003cbe04000000000078
:1044400034be0400000000002cbe04000000000088
:1044500026be040000000000d4b2040000000000ea
:1044600040b2040000000000c0b2040000000000e0
:10447000fab20400000000000eb2040000000000c8
:104480001ab804000000000006b804000000000094
:104490002eb8040000000000f6b704000000000081
:1044a000eeb70400000000007ab80400000000002d
:1044b00048b904000000000062b9040000000000d8
:1044c00040b8040000000000a6aa0400000000009c
:1044d00096aa040000000000d2aa04000000000018
:1044e00086aa0400000000008caa0400000000005e
:1044f0000c9b040000000000369b0400000000003c
:104500009c9b040000000000489b04000000000089
:10451000109c0400000000005e9a040000000000ef
:10452000009b040000000000069b04000000000047
:104530009c9c040000000000b6c7040000000000be
:10454000b2c704000000000014be04000000000018
:104550003600f800809fbe00829fbe00849fbe0090
:10456000869fbe0060940200000000008ec0a9007b
:104570004f03be004f02be004f01be004f00be0001
:104580003600f900004006000040da000000fe009e
:104590000000050003f0a200889fbe008a9fbe00b5
:1045a0008c1f78004a010700510133006450e1007c
:1045b0004f0032006420e1005200320003826c00a0
:1045c00007003b000905d0000306d000820f54000d
:1045d0000c065d00020039000200320089017800fb
:1045e000030678008582550004003d000003fd00ad
:1045f0008103fd008502ea008b854200840f720072
:1046000002003b0060001000e08018006011b8005c
:104610000005eb007a28e1000a0039000600780066
:10462000c75ddd00f707b200878075002d003700f9
:10463000828171000a017800610560008180d100eb
:104640000080d3008502e900f9ff3b00060440002a
:104650008784480002003b0060041400e0841c00d2
:104660000988a300070032008a81710082817100ed
:10467000610164008904d1000884d3008b05e8003f
:10468000170037000978a30013003a000b00e00080
:10469000130034008b05e9000804440089844c00b1
:1046a0000a4474000978a3000d003a000b00e000f2
:1046b000070034008b05e9000804440089844c009d
:1046c00001003a000b0020000978a300f7ff320038
:1046d0000001eb0002003700828171000a017800be
:1046e000c00007000cf0a70001f0a000090137008e
:1046f0006420e10002003a00838f6c00090133005e
:104700000801be000200be0002013700889fbe0003
:104710008a9fbe008c1f7800ed000700f400330074
:1047200003866c006450e1002e0032006420e1003a
:10473000330032006150e1002f0032006120e100bf
:104740003100320085855500eb07b00009002000dc
:1047500008042000050037000804440089844c0048
:104760000a0031000603430087834b000001530019
:1047700081815b00f8ff33000203be000800a00047
:104780000804440089844c00f6ff3900c639dd0076
:104790008301730001003200130020008904d1005e
:1047a0000884d3000998a300050032000800a70080
:1047b0000300a0008904d1000884d3008b05e80021
:1047c0008904d1000884d3000001eb000281d200eb
:1047d0008400070001f0a1000cf0a70001f0a00088
:1047e000cc0037006420e100ce0032000801be009a
:1047f0000200be00f7ff37006120e100c90032006f
:104800006000b800f3ff37000000200001f8270027
:10481000f0ff370014002000b0013700f4ff2f0034
:10482000ae0137000003be00940007006011b8001d
:104830000470a70007f0a10007f8a30017003a00d2
:104840006509b1000d0032000d0035008602200020
:104850000628e10003003500030028006000b800ce
:10486000020005000000400081804800020149006c
:10487000838149008502e900faff3a000000060042
:10488000f88f4200050034008100d1000080d30081
:104890008502e800fcff3a00000006006011b80045
:1048a0008000eb00000005000001be00730007005f
:1048b0000470a70003f0a10003f8a30013003a005e
:1048c0006509b10010003200090035006928e100d7
:1048d0000200350001002800000005000000400033
:1048e000818048008502e900fcff3a0000000600d4
:1048f000f88f4200050035008100d1000080d30010
:104900008502e800fcff3a00000006008000eb0092
:10491000000005004f89de00820178008a0137001f
:10492000889fbe008a9fbe00008270000402710052
:1049300004827100260032000004be000200be00a6
:104940006011b8006b092000950220000182cf00a1
:104950000a0039000541b1000082cf00070039008c
:104960000541b1000982cf00040039000541b100c2
:104970000882cf00010039000541b1000542520014
:10498000120032000a003b00828171006101640064
:104990008100d1000080d3008984d3000884d30033
:1049a0008b05e8000442e800f7ff3a0007003700f3
:1049b0000804440089844c000000480081804800bd
:1049c0008b05e9000442e900f9ff3a000500070001
:1049d0004f05be004f04be00000006006011b80085
:1049e000cfff370081002000618055000b003d00a3
:1049f0000b00200061fe2f000100e1001d003400cb
:104a000082817100610164008904d1000884d300af
:104a10000000e800faff3a00710020006100640025
:104a200003007000020060000900320061044400cd
:104a3000e0844c000988a500050032008b05e800e1
:104a40006808e10002003a008904d1000884d3001c
:104a5000f20f20000258e10005003d00c75ddd00b7
:104a6000f907b20089807500080078000000060090
:104a70000bf827008b00780000000500c70ade0055
:104a8000f107b200f50fb20008003200e1cf42009a
:104a9000020032000170a00024000500810f7000a8
:104aa000010032000408050044000500810f700079
:104ab00002003a00140005008502e90000004000f1
:104ac00081c04800fcff3b000170a00024000500ed
:104ad0000004be00e9ff07000003be000405be009d
:104ae0000200be00e5ff0700844f750000000600cd
:104af0000200be006450e100050036006420e100c1
:104b0000020036000968a30001003a000800be0058
:104b10000160a0004f0678004f05be004f04be00a4
:104b200000000600f0ff2f00f1ff2700f9ff37001b
:104b3000889fbe008a9fbe008c1f7800e4ff07009c
:104b4000ebff330003866c006450e1002400320068
:104b50006420e100270032006150e10022003200b1
:104b60006120e100210032008b854200eb07b1009b
:104b70000134b800003ab8000804420089844a00b1
:104b8000013ab8000030b8008880400009014a00ae
:104b90000400330000004000818048000201490009
:104ba0008b05e900c909dd008301700001003200b6
:104bb00013002000c814de004814dd004709de00a1
:104bc0001200b200c808de000884700085ff0700ec
:104bd00001f0a1000cf0a70001f0a000cdff37000c
:104be0006120e100cfff32000801be000200be00dc
:104bf000f7ff37006150e100fcff3a00c9ff3700c2
:104c00006022b800060220000000d0008180d2009f
:104c10000482d2008582d2000000a000020252006d
:104c200083825a00030031000202420083824a005c
:104c30000000a1000603e900f3ff3a0000000600af
:104c4000efff07000400be0000000600889fbe00c2
:104c50008a9fbe0030044200b0844a0030054b00f9
:104c600090854b006000b1000898be000a90be001d
:104c70000440e10005c8e10006d0e10007d8e100ea
:104c800002003100680040001008e8004f05be0037
:104c90004f04be0000000600889fbe008a9fbe0031
:104ca0003004be002005be000418540005985c00c6
:104cb00006185d0007985d00110020000440e10027
:104cc00005c8e10006d0e10007d8e1000100390085
:104cd0008000eb00108810004f05be004f04be009e
:104ce000000006001200fa00889fbe008a9fbe00e6
:104cf0008c9fbe00e0b79f00f1b79f0082bf9f006e
:104d000093bf9f000605be000404be000000eb0038
:104d1000d0b79f00c0b79f00b0b79f00a0b79f005b
:104d200090b79f000006eb005fb19700cfb09700ef
:104d3000820141003fb097000200e00004003d0006
:104d4000370007007e805700c0ff070003003700d0
:104d5000330007007e805700cfff0700dfb69700c3
:104d60000d00e0000c0035006fb29700ffb2970015
:104d70000fbb97009fbb9700100020000100200090
:104d80006011b80000027200818272000203730099
:104d9000838373001b0007000c06e8000104200059
:104da000810f5600e0ff3a000d00e00004003d00d6
:104db0000802be000a03be007e805700a3ff070062
:104dc0005fa897000000e00005003a001fb29700be
:104dd000afb297003fb39700cfb397000900070029
:104de0006fb09700ffb097000fb997009fb9970079
:104df0004f06be004f05be004f04be000080fa0003
:104e0000000006000100070000000600a4b79f0094
:104e1000b5b79f00c6b79f00d7b79f000000060038
:104e20004f09de0082817100b3b79f004f01de00a1
:104e30008180400082807000a1b79f008fb09700f2
:104e40004f09de00000040000200700090b79f0094
:104e50007fa897004f01de008180400082807000b3
:104e600081b79f000d0007004f3ade0000004000b0
:104e700004007000f0af9f00080007000402420029
:104e800085824a0006034b0087834b00dfff070043
:104e90000802be000a03be00000006002fb2970001
:104ea000bfb297004fb39700dfb397000000060032
:104eb000881f780018002000881f780089ff0700ed
:104ec0008f87e9004f04780000000600801feb0088
:104ed00084ff07008f87e90000000600889fbe005e
:104ee0008a9fbe00841f7800f9fe07004f007800fb
:104ef00011003300f0ff2f00838f6c0006003b0091
:104f0000040565000a00a7000800370009f0a600a4
:104f10001000200008003700820f5400838f5c00cf
:104f2000030039001000200001003e0000002000b6
:104f300009f0a7000000ea004f05be004f04be00c4
:104f40000000e00000000600881f780003047800dd
:104f50000300e00007003d0060001000e080180042
:104f600060011900e081190002003b0001f02d00f2
:104f7000030037006afe070008f0a70001f0a00058
:104f80004f0478000000060080017800020037001e
:104f9000b15978000201e9000200e000fcff3a008c
:104fa0000000060080017800020037008159780077
:104fb0000201e9000200e000fcff3a0000000600e8
:020000040000fa
:104fc00030300000302c00000030000030000000c5
:104fd0000808000008080000080000000030000079
:104fe000313200003334000035360000373800001d
:104ff00039410000424300004445000046000000e3
:1050000080400000c0200000a0600000e010000010
:1050100090500000d0300000b0700000f008000098
:1050200088480000c8280000a8680000e8180000b0
:1050300098580000d8380000b8780000f804000044
:1050400084440000c4240000a4640000e4140000b0
:1050500094540000d4340000b4740000f40c000038
:105060008c4c0000cc2c0000ac6c0000ec1c000050
:105070009c5c0000dc3c0000bc7c0000fc020000ea
:1050800082420000c2220000a2620000e212000080
:1050900092520000d2320000b2720000f20a000008
:1050a0008a4a0000ca2a0000aa6a0000ea1a000020
:1050b0009a5a0000da3a0000ba7a0000fa060000b4
:1050c00086460000c6260000a6660000e616000020
:1050d00096560000d6360000b6760000f60e0000a8
:1050e0008e4e0000ce2e0000ae6e0000ee1e0000c0
:1050f0009e5e0000de3e0000be7e0000fe0100005d
:1051000081410000c1210000a1610000e111000007
:1051100091510000d1310000b1710000f10900008f
:1051200089490000c9290000a9690000e9190000a7
:1051300099590000d9390000b9790000f90500003b
:1051400085450000c5250000a5650000e5150000a7
:1051500095550000d5350000b5750000f50d00002f
:105160008d4d0000cd2d0000ad6d0000ed1d000047
:105170009d5d0000dd3d0000bd7d0000fd030000e1
:1051800083430000c3230000a3630000e313000077
:1051900093530000d3330000b3730000f30b0000ff
:1051a0008b4b0000cb2b0000ab6b0000eb1b000017
:1051b0009b5b0000db3b0000bb7b0000fb070000ab
:1051c00087470000c7270000a7670000e717000017
:1051d00097570000d7370000b7770000f70f00009f
:1051e0008f4f0000cf2f0000af6f0000ef1f0000b7
:1051f0009f5f0000df3f0000bf7f0000ff00000056
:105200000052000045540000555200004e000000be
:10521000525500004e0000004c490000535400005d
:105220000045000058490000540000004e450000b1
:10523000570000004c4500005400000049460000a3
:1052400000540000484500004e000000454c00009e
:1052500053450000004700004f5400004f0000007d
:10526000474f000053550000420000005245000027
:1052700054550000524e000000520000454d000001
:1052800000500000524900004e5400000049000048
:105290004e50000055540000004600004f520000e0
:1052a000005400004f0000004e450000585400001c
:1052b000005200004541000044000000444100004d
:1052c00054410000005300005441000052540000bb
:1052d00052000000535400004152000054000000ee
:1052e000535400004f50000052000000535400007f
:1052f0004f50000000530000454e000044000000e5
:10530000524500004345000049560000450000009a
:10531000434c00004b0000004441000054000000da
:105320004249000054520000454100004400000082
:105330004144000043000000415500005850000067
:10534000494e00000050000053550000005000007e
:10535000554c00004c550000500000004445000032
:105360004c41000059000000415500005800000069
:105370004652000045510000004400005554000012
:10538000590000004d410000435200004f00000052
:10539000454e0000440000001aa900001ea90000ac
:1053a00021a9000026a900002ba9000030a90000b7
:1053b00036a900003da9000041a9000047a900004e
:1053c0004da9000051a9000054a9000059a90000ee
:1053d0005ea9000063a900006aa9000070a900008e
:1053e00076a900007ba9000080a9000088a9000020
:1053f0008ca9000090a9000098a900009ca90000b9
:10540000a3a90000a7a90000aea90000b4a900004c
:10541000b8a90000bda90000c2a90000c8a90000e9
:1054200000000000002e0000003a000020000000f4
:10543000005e0000bce20000613f0000dd83000070
:10544000c29c00007e200000a3fd00001f41000060
:105450009dc30000217f0000fca20000401e000050
:105460005f010000e3bd00003e60000082dc000040
:10547000237d00009fc10000421c0000fea0000030
:10548000e1bf00005d03000080de00003c62000020
:10549000bee00000025c0000df810000633d000010
:1054a0007c220000c09e00001d430000a1ff000000
:1054b00046180000faa40000277900009bc50000f0
:1054c00084da000038660000e5bb000059070000e0
:1054d000db85000067390000bae4000006580000d0
:1054e00019470000a5fb000078260000c49a0000c0
:1054f000653b0000d9870000045a0000b8e60000b0
:10550000a7f900001b450000c69800007a2400009f
:10551000f8a60000441a000099c70000257b00008f
:105520003a64000086d800005b050000e7b900007f
:105530008cd20000306e0000edb30000510f00006f
:105540004e100000f2ac00002f71000093cd00005f
:10555000114f0000adf30000702e0000cc9200004f
:10556000d38d00006f310000b2ec00000e5000003f
:10557000aff10000134d0000ce900000722c00002f
:105580006d330000d18f00000c520000b0ee00001f
:10559000326c00008ed00000530d0000efb100000f
:1055a000f0ae00004c12000091cf00002d730000ff
:1055b000ca94000076280000abf5000017490000ef
:1055c00008560000b4ea000069370000d58b0000df
:1055d00057090000ebb50000366800008ad40000cf
:1055e00095cb000029770000f4aa000048160000bf
:1055f000e9b70000550b000088d60000346a0000af
:105600002b75000097c900004a140000f6a800009e
:10561000742a0000c8960000154b0000a9f700008e
:10562000b6e800000a540000d78900006b3500007e
:10563000120100000002000002000000000800004b
:10564000d804000000fb000002000000010200007e
:1056500003010000090200004300000002010000f5
:105660000080000064090000040000000001000048
:1056700002020000010000000524000000100000ec
:1056800001040000240200000205000024060000be
:1056900000010000052400000101000001070000d6
:1056a00005810000030a000000400000090400001a
:1056b00001000000020a00000000000000070000d6
:1056c0000502000002400000000000000705000085
:1056d00082020000400000000004000003090000f6
:1056e000042a00000344000000610000006e000076
:1056f000006700000065000000720000006f0000fd
:105700000075000000730000002000000050000041
:1057100000720000006f000000740000006f0000c5
:1057200000740000007900000070000000650000b7
:1057300000730000001e000003420000007500001e
:10574000007300000020000000500000006900000d
:10575000007200000061000000740000006500009d
:10576000002000000056000000340000002000006f
:105770000012000003300000003000000030000084
:105780000030000000300000003000000030000059
:105790000031000000000000003e00000049000051
:1057a000090000004f090000004800000900000047
:1057b0004c090000001b00005b00000044000000da
:1057c000430000000d0a00002800000078000000df
:1057d000293e0000002e000020000000427500005d
:1057e00073200000506900007261000074650000c1
:1057f0002076000034000000436f00006d6d000053
:10580000756e000069740000792000004669000090
:10581000726d000077610000726500002076000064
:10582000372e0000312000002d20000043540000de
:105830004857000052450000204500006469000000
:10584000746900006f6e0000200000002900000055
:10585000666c0000616700007b4100006161000030
:1058600061720000674800005f4d00006174000035
:10587000657900005f48000033720000335f00006c
:10588000626500005f620000303000007479000043
:105890007d0000002e2000003c0000000000000001
:1058a00001000000000000000200000000000000f5
:1058b00004000000000000000800000000000000dc
:1058c00010000000000000002000000000000000a8
:1058d0004000000000000000800000000000000008
:1058e0008000000000000000000100000000000037
:1058f00000020000000000000004000000000000a2
:10590000000800000000000000100000000000007f
:105910000020000000000000004000000000000027
:1059200000800000000000000000000001000000f6
:105930000000000002000000000000000400000061
:10594000000000000800000000000000100000003f
:105950000000000014340000040d00008206000066
:1059600040030000a0010000cf000000670000001d
:1059700044000000220000007f0000000000000042
:10598000000000002c010000000000005802000090
:1059900000000000b00400000000000060090000ea
:1059a00000000000c0120000000000008025000080
:1059b000000000004038000000000000004b000024
:1059c0000000000080700000000000000096000051
:1059d00000000000c0da00000000000000e100004c
:1059e0000000000000c200000100000000f4000000
:1059f0000100000000e80000030000003141000049
:105a00004c530000014200005076000034000000ba
:105a1000210000000010000000230000000f000023
:105a2000424000004005000041020000000000006c
:105a30000000000000690000d05d00006ddb000088
:105a40005d6b0000cb5d000069d000005d000000d0
:105a500000000000181c00001d0c0000161a0000b9
:105a60000b0f00001e1700001b0000001450000068
:105a700001080000010300000000000000200000f9
:105a8000290000009d2500000d00000029000000f5
:105a90000000000000000000000000000000000006
:045aa0000000000002
:020000040000fa
:105aa400109781000000e8000080fb00011e230025
:105ab400e140780080c7b30080cf5000100032006e
:105ac4007440500080cf50000900320000c0e9004b
:105ad40080cf5000080032000040eb0072c7b300d2
:105ae40082cf500008003a00300020000500370043
:105af40010002000030037002000200001003700c0
:105b04000000eb000040e8000000060011c0b300f4
:105b1400902e2300014878008000eb003197890023
:105b240000978100021e2300017178000000e80044
:105b34000080fb000097890020978900c0bc2a00e0
:105b4400209802000000000000000600104123001d
:105b54001004e00005003a00609a2c0001002000c7
:105b6400deba02000000000034003700c922a90098
:105b7400cb22a80021e3a80020002000aa9502005f
:105b8400000000000000eb00489502000000000047
:105b9400011b2000810f50001a0036002000200055
:105ba4004895020000000000712b2000810f500076
:105bb40014003600a0d72c000100200084ba020093
:105bc40000000000c0bc2a00209802000000000071
:105bd400104123009080fb00000320000088b900de
:105be4000002b00001002300610078000000010001
:105bf40060d52c0001002000deba02000000000085
:105c04000d003700c922a900cb22a90060962c0000
:105c140001002000deba02000000000060c72c0072
:105c24000100200084ba020000000000c0bc2a0069
:105c3400209802000000000021e3a90000000600f3
:105c440010412300104078000004e00005003a00f1
:105c5400609a2c0001002000deba0200000000005f
:105c6400140037000080fb00010320000180b9000c
:105c74002002b00001002300610078000000010050
:105c840080c62c0001002000deba020000000000e3
:105c9400c922a900cb22a90060c72c000100200062
:105ca40084ba020000000000c0bc2a002098020050
:105cb400000000000000060080102d0001002000fc
:105cc40084ba020000000000104123001081fb0090
:105cd400000320000091b90081022300010041006b
:105ce4003e970200000000002041230010007800cd
:105cf4006400600004003200e0fd2c00010020007c
:105d040084ba020000000000d0bc2a003e970200c2
:105d14000000000000000600c21680008000610040
:105d240020bd2a0001003200f0bc2a003e97020088
:105d34000000000000000600d21680008000610010
:105d440080bd2a000100320050bd2a003e970200a7
:105d540000000000000006002097810001978100e8
:105d6400810f500004003a0070c0b300d4950200c3
:105d740000000000080037000000e800f20f2000d7
:105d8400412e23008208600040112d0001002000f4
:105d940084ba02000000000000000600889fbe00d4
:105da4008a9fbe00800578001197810000978100ca
:105db400808f50000c003200041e23008041eb0051
:105dc400f20f2000037278000000e9000200600076
:105dd400808f5000fbff3a00009789000041eb00e0
:105de400011e2300827078000b00e9000080fb0094
:105df400029781000004eb00820f50001200320071
:105e0400011e2300e14078000104e00007003a008d
:105e140003003700e44078000104e00005003a0084
:105e24000000e8000084fb0007003700f30f2000a7
:105e3400041e23000000e90003006000820f5000ec
:105e4400f4ff3a000004eb009bff07008b0f5400a3
:105e54000e003200091e2300fa0f200069407c0066
:105e6400d4950200000000000097810068f07c00d7
:105e74000000e8000a006000009789000804e800b8
:105e84000a046400888f5500f4ff3a0000978100eb
:105e94000041eb00011e23008270780020978900e6
:105ea4004f05be004f04be0000000600889fbe00e0
:105eb4008a9fbe00189781000804e9000884fb004b
:105ec40000978100800f5400170032000005eb009a
:105ed400091e23006b2e230069407c000004e000af
:105ee4000c003a000800e9000080fb0069407800db
:105ef4000004e000070032000a05e8001b007800f7
:105f0400800f550003003600800de800080078007b
:105f1400a2ff07000804e9000884fb000097810041
:105f2400880f5000ecff3a0070c0b300d495020013
:105f3400000000004f05be004f04be000000060034
:105f4400889fbe008a9fbe00199781008904e900da
:105f54008984fb0000978100808f54001800320070
:105f64008000eb000a1e23006b2e23006ac07c0015
:105f74000004e0000d003a000900e9000080fb0085
:105f84006a4078000004e000080032008100e80064
:105f94001b04e900810f540004003a00880d7800c6
:105fa400090078007dff0700880078008904e90073
:105fb4008984fb0000978100890f5000ebff3a00b1
:105fc40030978100e10f50000400320070c0b3002c
:105fd400d4950200000000001400370036ff0700cb
:105fe4000097810011978100810f50000900320051
:105ff400041e23008041eb00f20f2000037278009e
:106004000000e90002006000808f5000fbff3a00ae
:10601400009789000041eb00011e23008270780084
:1060240020978900602e23000008eb004f05be0076
:106034004f04be00000006008000780000c3b300d7
:106044000100e000010032000040e800d4950200a5
:106054000000000000000600889fbe008a9fbe006a
:1060640021978100009781008004eb00808f50000d
:106074000f0032000a1e23000bc2b3000104e80023
:106084006a407c0000f578000004e00001003a005a
:106094000b407800d4950200000000008904e80059
:1060a4008880fb0000978100810f5000f3ff3a00c5
:1060b4000000e9000080fb0000978900b0bd2a00c1
:1060c4003e9702000000000009007800b696020026
:1060d40000000000e0bd2a003e970200000000001e
:1060e4004f05be004f04be0000000600209781004b
:1060f40011978100810f500004003a0070c0b30072
:10610400d4950200000000001800370001978100b8
:10611400810f50000c003a000000e9000080fb00f1
:10612400009789000041eb00011e23008270780073
:106134002097890080112d000100200084ba0200fc
:106144000000000009003700c0102d0001002000ed
:1061540084ba020000000000402e23001001e90070
:10616400f10f200001086100bbff070000000600da
:106174002197810010978100808f500004003a001d
:1061840070c0b300d4950200000000000100370085
:10619400b1ff070000000600889fbe002197810020
:1061a40010978100808f500003003a0070c0b30044
:1061b400d495020000000000492e230018978100a6
:1061c400190414000884fb00b0bd2a003e970200a5
:1061d4000000000008007800b696020000000000ed
:1061e400e0bd2a003e9702000000000010978100e5
:1061f400800c78004f04be0000000600889fbe009b
:106204002197810000978100808f500003003a009d
:1062140070c0b300d495020000000000492e230092
:1062240008978100190454000884fb00b0bd2a00bb
:106234003e9702000000000008007800b6960200b5
:106244000000000000be2a003e970200000000008b
:1062540000978100800c78004f04be000000060007
:10626400889fbe008a9fbe008c9fbe008e1f780050
:10627400804678000a9781008a00e8008180fb004c
:1062840010978100808f50004b003200ffcf5600e2
:1062940049003600e0c7b30080cf560046003e00f8
:1062a40028978100880f55000d003a000d407800b2
:1062b400d49502000000000000978100011e230015
:1062c4008d7078000000e8000080fb0000978900d2
:1062d4000041eb0082707800209789003900370074
:1062e400b0bd2a003e9702000000000008045500db
:1062f400fb0f20000b006400b696020000000000b3
:1063040000be2a003e970200000000000a978100a8
:10631400402e23001000e9008b0560008a8f550091
:10632400160032000b1e230008112d000900200066
:10633400fc0f20004e2e23000a804500eb407d0018
:10634400114098006b407d000004e000050032001d
:10635400d4950200000000000800be0084ba0200c8
:10636400000000000a05e9000c0565001e00e900b4
:106374000c0060008a0f5000efff3a000d407800d7
:10638400d495020000000000412e23001100780083
:10639400021e23000d7178000001e800f00f2000b8
:1063a40080086100019781008100e800008060009e
:1063b400009789000300370070c0b300d495020031
:1063c400000000004f0778004f06be004f05be00d6
:1063d4004f04be0000000600802e230041c0b3001d
:1063e40090cf10000500360060ba020000000000e3
:1063f400802e23000048eb00100037002097810016
:1064040011978100810f5000090032000000e9005b
:10641400f20f2000412e230082086000c0102d00de
:106424000100200084ba02000000000003003700cd
:1064340070c0b300d4950200000000000000060004
:10644400ec98020000000000b1c5b300814f500079
:1064540029003a00ec9802000000000011c4b300c7
:10646400814f50001300320007003e00f0c050007e
:10647400814f500013003200e3c04000814f5000b0
:106484001d003a001600370031c4b300814f50009c
:1064940006003200090039008140e800814f5000b5
:1064a40015003a00ccff0700130037002afe07004e
:1064b400110037007dfe07000f003700a0fe070023
:1064c4000d003700ec98020000000000e1c7b300a3
:1064d400814f500008003a002fff070006003700e4
:1064e400ec98020000000000e1c7b300814f5000a7
:1064f40001003a0041ff070000000600889fbe002b
:1065040000f42c0001002000deba020000000000ac
:1065140020212c0001002000deba0200000000004f
:10652400806c2c000100200084ba020000000000ee
:10653400104123009080fb00000320000088b90074
:106544004002b00001002300610078000000010057
:1065540080f42c000100200084ba02000000000036
:1065640010002000ecfd070000102000eafd0700e9
:1065740000022000e8fd070000012000e6fd0700fe
:1065840080002000e4fd070040002000e2fd070039
:1065940020002000e0fd0700c0bc2a002098020073
:1065a40000000000400e2d000100200084ba02000b
:1065b4000000000021e3a80020002000489502000c
:1065c40000000000cc96020000000000c8172d0057
:1065d400090020000800be0084ba02000000000088
:1065e40090c0b300d4950200000000000000eb004e
:1065f4004895020000000000cc9602000000000054
:106604000800be0084ba02000000000090c0b3007d
:10661400d4950200000000005000200048950200bc
:1066240000000000cc960200000000000800be003c
:1066340084ba02000000000090c0b300d4950200a8
:106644000000000010002000489502000000000037
:10665400cc960200000000000800be0084ba0200cc
:106664000000000090c0b300d495020000000000b8
:1066740021e3a90010002000affd07000010200056
:10668400adfd070000022000abfd07000001200063
:10669400a9fd070080002000a7fd0700400020009e
:1066a400a5fd070020002000a3fd0700c0bc2a00b0
:1066b40020980200000000004f04be000000060005
:1066c40000052d000100200084ba02000000000033
:1066d400a17f250010002000889502000000000022
:1066e400e29502000000000000c2b300d49502004d
:1066f40000000000400b2d000100200084ba0200bd
:1067040000000000c17f25001000200088950200d1
:1067140000000000e29502000000000080002d004f
:106724000100200084ba020000000000e17f25007f
:10673400100020008895020000000000e29502008d
:1067440000000000c0bc2a002098020000000000e5
:1067540000e42c0001002000deba0200000000006a
:1067640066ff0700cb22ab0005003200a0d72c0047
:106774000100200084ba0200000000000400370079
:1067840060c72c000100200084ba02000000000051
:10679400c0c2b300d49502000000000000c2b300e0
:1067a400d495020000000000e282ab000500320034
:1067b40040c12c000100200084ba02000000000047
:1067c4000400370040b62c000100200084ba020007
:1067d40000000000c0c2b300d49502000000000015
:1067e40000c2b300d495020000000000e8a2ab0090
:1067f40004003a00a00a2d000100200084ba02001f
:1068040000000000e882ab0004003a0000fb2c000a
:106814000100200084ba02000000000000422300ae
:10682400104078007040600005003200a07c2c000d
:1068340001002000deba020000000000040037005e
:10684400608b2c0001002000deba02000000000072
:1068540000422300104078006840600005003a00c0
:10686400a09b2c000100200084ba0200000000005c
:1068740004003700e09c2c000100200084ba0200d0
:1068840000000000c0c2b300d49502000000000064
:1068940000c2b300d495020000000000609f2c00e9
:1068a4000100200084ba020000000000f04123002f
:1068b40010407800a896020000000000c0bc2a0026
:1068c40020980200000000000042230010407800dd
:1068d400634060000080fb00e20f50000e003200b5
:1068e400e30f500011003200e10f500005003200a8
:1068f40040b52c0001002000deba020000000000b8
:106904000e00370040b42c0001002000deba020063
:10691400000000000900370040bb2c0001002000eb
:10692400deba0200000000000400370040bc2c0066
:1069340001002000deba0200000000001041230024
:106944009080fb00000320000088b9006002b000c2
:1069540001002300610078000000010000e42c0025
:1069640001002000deba0200000000000000060062
:10697400889fbe008a1f7800139781000380fb0064
:10698400011e230061407800f1ccb3008140400037
:10699400e8cf50001a003e000080fb000003b10065
:1069a4008300e8008180fb00021e230062c178009e
:1069b40004cdb3000442410011002000e94f52000d
:1069c40076003e00f80f2000071e230006cdb3001a
:1069d4006a02b9000280fb00040040000003b10019
:1069e4008100e800038140000801610067417900eb
:1069f40006424100e94f5200f5ff360067003700b8
:106a040001c3b300814f500060003a000300e80066
:106a14000080fb00011e23006141780020c6b30002
:106a2400804f51000b003a000380e8000080fb0017
:106a3400011e23006141780004cdb30004424100eb
:106a44000000eb0021002000e14f52000500360059
:106a54005200370020c4b300804f510010003a00a8
:106a6400f1ff3700f70f2000061e230005cdb30009
:106a7400000040000281fb00020040000003b1005e
:106a84008100e8000381400007016100664179004c
:106a940005424100e14f5200f5ff36003f00370048
:106aa40080c7b300804f51000a00320080c5b30094
:106ab400804f51001e003a00090037004400dd00f9
:106ac4000003b1000281fb00020040008100e800e5
:106ad4000a0037000000eb0021002000020037000c
:106ae4000000eb0021002000f80f2000061e230008
:106af40007cdb300f9cbb300fac9b3000382400059
:106b04000802620066417a0087424100e9cf5200e0
:106b1400eaff360089424100e5cf520026003600e4
:106b24008a424100e5cf5200230036001b003700a3
:106b340004cdb300044241000000eb00110020002a
:106b4400e94f520015003e000280fb000003b10033
:106b5400f80f2000071e230006cdb3006a02b90017
:106b64000280fb00040040000003b1008100e80043
:106b74000381400008016100674179000642410039
:106b8400e94f5200f5ff36000400370000422300ad
:106b94001074a0000000eb0004003700129781007d
:106ba400828040008180fb00119789004f057800a6
:106bb4004f04be00000006000254a00002737a00d5
:106bc4004400dd007005b1000281fb0002004000ba
:106bd400beff3700881f7800119781000100e8008c
:106be4000080fb00021e2300e24178001000200018
:106bf400a2c3b30082cf510009003a008180e800ab
:106c0400f80f2000888060001197890058ff070062
:106c1400119781008100e9000884600018978900b9
:106c24004f04780000000600881f78001197810047
:106c34000100e8000080fb00021e2300e24178000e
:106c44000000eb00b2c3b30082cf510009003a0048
:106c54008180e800f80f2000888060001197890087
:106c640043ff0700119781008100e9000884600058
:106c7400189789004f0478000000060010978100df
:106c8400011e23006141780001c2b300814f51000d
:106c940009003a00f40f2000031e2300014178008c
:106ca4000000e80004006000e340780082cf500058
:106cb400fbff32001097890000000600889fbe0089
:106cc4008a1f780000447800109781000000e800d3
:106cd4000080fb0010978900e8ff070024ff0700ed
:106ce400000578000804e00006003200f0412300ab
:106cf400904078000a0078007095020000000000bf
:106d0400000578000a407800109602000000000098
:106d1400c80f2d00090020000800be0084ba02003c
:106d2400000000000a407800a8960200000000005d
:106d34000800be0084ba0200000000000a40780087
:106d44000a97020000000000c0bc2a00209802003c
:106d5400000000004f0578004f04be00000006004c
:106d6400f0874700889fbe008a9fbe008c9fbe00ac
:106d74008e1f7800f0b79f00e1b79f00d2b79f0045
:106d840083bf9f0088112d00090020002a9e2c003b
:106d94000b00200020be2a003e97020000000000e5
:106da4007fb097000000e00004003d0060be2a00b0
:106db4003e97020000000000030037006fe89700d0
:106dc400a89602000000000080be2a003e97020040
:106dd400000000000007eb008006eb00ec980200c6
:106de4000000000000467800ed4f560045003200d8
:106df40005003e00e84f56000a003200ea4f5600f4
:106e040029003a003f003700d0c2b300804f56003b
:106e14001600320080c7b300804f560022003a00ab
:106e24001d0037000d00e000050032008d06e9006a
:106e34000800be0084ba020000000000e7ff37002b
:106e44000e00e000050032000800be0084ba020013
:106e5400000000000007eb00e0ff370070c0b30043
:106e6400d495020000000000dcff37000d00e000b4
:106e740005003a00d0c2b300d4950200000000001f
:106e84001e002000d5ff370070c0b300d495020067
:106e940000000000d1ff37008fb897000100e00028
:106ea400140032003600370001cdb3000140460023
:106eb400e94f50000f003e00e38f560005003400f8
:106ec40070c0b300d4950200000000004d00200003
:106ed400c2ff37000c407800d49502000000000087
:106ee4008c4078007c80570001f07e008d06e8001d
:106ef400baff370070c0b300d49502000000000050
:106f0400b6ff3700c0bc2a00209802000000000031
:106f14000d00e0001e0032000d00e9008000eb00cf
:106f2400080033007c8057008d0640006a09b900d0
:106f3400b080fb000103b100828040008d0f50003f
:106f4400faff3a006fb09700810f500008003c0030
:106f54005fb09700810f5000050035000e00e0007f
:106f64000a0032000100ea00f0b79f000800370071
:106f74000a00be00deba02000000000085ff3700f0
:106f84008080eb00f1b79f0001003700f1b79f004c
:106f94007fb097004f0778004f06be004f05be0034
:106fa4004f04be000f01b100000006001e00fa00ed
:106fb400889fbe008a9fbe008c9fbe0010978100f0
:106fc4000004e9000884fb001d002000880f500025
:106fd4002b003200091e2300fb0f200069407c00b7
:106fe4000004e00021003a000806e8000b066600f1
:106ff40069407e000004e0001c0032000d4078006f
:10700400a896020000000000b0be2a003e970200cd
:107014000000000069407e000004e0000800320027
:107024000885e800d4950200000000000b0065000c
:10703400694078000a05e8000004e000f9ff3a001e
:107044000d8046000c01780061fd2f008f80400008
:10705400823078008d06e800ef8f56000800320079
:10706400c0bc2a0020980200000000000804e900c7
:107074000b04640010978100800f5400d7ff3a007e
:10708400c0bc2a002098020000000000c0ff2c00b1
:1070940001002000deba02000000000013002000fe
:1070a4000d017800830078000000eb002cff07003e
:1070b4008000e800e18f50000b0036000000400023
:1070c40061fd2f008f804000e10278000580fb0005
:1070d400011e2300e14078000000eb000104e00001
:1070e40006003a0012003700c0bc2a0020980200b3
:1070f40000000000100020001c00370006978100eb
:107104000000eb00f30f2000021e230006024000e3
:107114000302620001717a000000e800850040006b
:1071240083806000e2c078000104e000f7ff3a00c9
:10713400029781000201e900f10f200001016100c2
:10714400129789000281e8000000410001006000fc
:10715400009789000000e900810060000041eb0015
:10716400001e230002f078000000eb004f06be0072
:107174004f05be004f04be000080fa000000060068
:10718400889fbe008a9fbe00109781000000e8001f
:107194000080fb0010978900b8fe0700f4fd07008b
:1071a4000000e00045003a000004eb000903200061
:1071b4000a0023000840e800a8960200000000002e
:1071c400b0be2a003e9702000000000009c0b900ca
:1071d4008002b0000a004000209802000000000075
:1071e4000804e800ea0f5400f2ff3a0040b92c000a
:1071f40001002000deba020000000000004223006b
:107204001074a10013002000a20020008300780065
:1072140003007800d2fe07000004e9000000e80043
:10722400e10f500005003e0060e32c000100200047
:10723400deba0200000000003f00370019412300bd
:107244001980fb000a0320000a80b9002002b00064
:107254000b0023006b00780000000100ea94020098
:1072640000000000884c78000880fb000a80b90008
:107274007e0540006b007d000000010080c62c00ec
:1072840001002000deba0200000000000800e00057
:1072940005003200cb02a800e0392c0001002000d8
:1072a400deba020000000000000b2d0001002000e7
:1072b400deba0200000000001f0037000004e900ed
:1072c400e90f540018003c00194123001980fb0009
:1072d4000a0320000a80b9002002b0000b0023003a
:1072e4006b00780000000100ea9402000000000036
:1072f400884c78000880fb000a80b9007e054000b5
:107304006b007d00000001000800e0000100320075
:10731400cb02a800000b2d0001002000deba020001
:10732400000000000400370040ba2c0001002000d7
:10733400deba020000000000009781000000e900ae
:107344000080fb00109789004f05be004f04be006b
:1073540000000600881f7800109781000000e800f4
:107364000080fb001097890044fe070080fd0700a1
:107374008000e900e98f500003003e00f140230043
:107384008048e9000d003700004223001074a1007a
:1073940020fd2b0001002000deba020000000000e6
:1073a4008001eb00a20020001100200090002000ca
:1073b4006bfe0700f14023008048e9000004eb0065
:1073c400f040230091c0b30090cf100011003a00a8
:1073d4002afe070066fd0700000478000800e000ac
:1073e4000c003a00004223001074a10040bf2c009e
:1073f40001002000deba0200000000008001eb0062
:10740400f2ff27008000eb002002200054fe07005a
:107414000004780000c32c0001002000deba020042
:107424000000000020d02c0001002000deba020081
:10743400000000005899020000000000f040230002
:1074440091c0b30090cf100003003a000800780008
:107454006499020000000000569902000000000038
:1074640008c2b300ec98020000000000884f5000ee
:10747400fcff3a004f0478000000060010978100da
:107484000000e8000080fb0010978900fbfd070066
:1074940037fd07008000e900e38f500003003e0041
:1074a400014123008048e9000d0037000042230019
:1074b4001074a100207e2c0001002000deba02001e
:1074c400000000008001eb004200200011002000b9
:1074d4001000200022fe0700014123008048e9003b
:1074e40020c22c0001002000deba020000000000cf
:1074f40000000600fc874700889fbe008a9fbe00ec
:107504008c9fbe008e1f78000005be00c2b79f008e
:10751400a4b79f00b5b79f00f3b79f0088112d0053
:10752400090020002c9e2c000d002000dab79f00db
:10753400ebb79f0020be2a003e9702000000000027
:107544005fb09700efb09700e00f5000e08f580055
:1075540004003d0060be2a003e97020000000000c7
:10756400040037005fb09700efb09700c2960200a6
:107574000000000080be2a003e97020000000000c8
:107584008000eb0081bf9f000e002000ec980200f9
:107594000000000000457800ed4f55004a0032001d
:1075a40006003e00e84f55000b003200ea4f55003c
:1075b4002d003a000e05780044003700d0c2b30015
:1075c400804f55001800320080c7b300804f55002b
:1075d40025003a00200037000e00e00005003200cc
:1075e4000e07e9000800be0084ba02000000000093
:1075f400e6ff37000fb997000200e00006003200f2
:107604000800be0084ba0200000000008001eb0004
:1076140083bf9f00ddff370070c0b300d495020024
:1076240000000000d9ff37000e00e00006003a0019
:10763400d0c2b300d4950200000000001400200062
:1076440084bf9f00d1ff370070c0b300d4950200ff
:1076540000000000cdff37007fb097000000e0007d
:10766400150032004300370001cdb300014045004e
:10767400e94f500010003e00e90f570005003400a8
:1076840070c0b300d495020000000000ae002000da
:10769400beff37000a407800d495020000000000c5
:1076a4008a41780082fd2f000f01410003717f00a1
:1076b4000e07e800b5ff370070c0b300d495020090
:1076c40000000000b1ff37000e057800c0bc2a009e
:1076d40020980200000000000a00e0002a003200a6
:1076e4000a01e9006000b8000e0033008efd2f008f
:1076f4000f0747000a0247006000b8006a09b90092
:107704006a00b800810041003e81fb000203b10021
:10771400cf91de000000410081804900840f5700b2
:10772400f6ff3a004fb297006121b900800f510073
:10773400818f59000b003c002fb19700bfb1970017
:10774400800f5100818f5900060035008fb99700d2
:107754000300e0000a00320060051000e085180014
:107764000b0037000c00be00deba0200000000006f
:1077740070ff37000085eb008085eb0004003700c4
:107784000005be00020037005fb59700efb5970013
:107794000a00be004f0778004f06be004f05be002a
:1077a4004f04be00cf01b10000000600889fbe0058
:1077b4008a9fbe00e0be2a0020980200000000005c
:1077c400c0bf2a003e97020000000000b0c5b3000d
:1077d400d495020000000000190020000004eb0012
:1077e4000a0320000b002300020037000804e8000d
:1077f4008904e8000800e0004100320000c2b30040
:10780400d4950200000000000ac0b9008002b00054
:107814000b0040003e97020000000000e98f540076
:10782400f2ff3600d0c5b300d4950200000000007a
:10783400c0bc2a00209802000000000020002d0097
:107844000100200084ba02000000000050a0810062
:10785400e29502000000000020032d00010020003a
:1078640084ba020000000000c84023001800780019
:10787400e295020000000000a0d42c0001002000ca
:1078840084ba02000000000018007800e10f5000e4
:1078940003003200e30f50000b003a0005003700ec
:1078a40040172d000100200084ba020000000000ef
:1078b4000900370060172d000100200084ba02007f
:1078c400000000000400370040102d0001002000db
:1078d40084ba02000000000060c22a00209802005e
:1078e40000000000008a2c0001002000deba020023
:1078f400000000004f05be004f04be00000006005b
:107904000ac0b9008002b0000b0040003e9702009c
:1079140000000000b5ff3700104123001004e00010
:1079240007003a00609a2c0001002000deba020031
:1079340000000000004223001074a0007100370012
:1079440000422300104078007040600007003a00b5
:10795400a07f2c0001002000deba0200000000001d
:10796400004223001074a00066003700e8a2a800bb
:10797400ea82a900e882a80020002000aa9502005b
:107984000000000021e3a8005000200048950200f8
:107994000000000021e3a90001102000810f500025
:1079a4000700360080672c0001002000deba0200c8
:1079b40000000000004223001074a00051003700b2
:1079c400109781000000e8000080fb0010978900f8
:1079d400aafc0700e6fb0700014223001104e000b3
:1079e4000b003d00010078001074a100601d2c0004
:1079f40001002000deba0200000000008001eb005c
:107a0400320020001100200010002000d4fc0700e8
:107a1400e20f500010003200e30f50001e0032004d
:107a2400e10f50002c003a00e8a2a800ea82a90065
:107a3400e882a80040aa2c000100200084ba0200b9
:107a44000000000040042d0001002000deba020006
:107a5400000000002b003700e8a2a800ea82a90079
:107a6400e882a900800c2d000100200084ba0200e5
:107a74000000000040aa2c000100200084ba02008b
:107a840000000000e0032d0001002000deba020027
:107a9400000000001b003700e882a800eaa2a90049
:107aa400e8a2a900a0162d000100200084ba02005b
:107ab4000000000040aa2c000100200084ba02004b
:107ac40000000000e0032d0001002000deba0200e7
:107ad400000000000b003700e8a2a800ea82a90019
:107ae400e882a80040aa2c000100200084ba020009
:107af4000000000040042d0001002000deba020056
:107b04000000000000000600f6874700889fbe00c2
:107b14008a9fbe008c9fbe008e1f78000000eb0081
:107b2400109789000097890020978900114123004c
:107b340080487800014223001174a100a12e230083
:107b44009f0009008058eb00509c89000041eb0025
:107b5400c2ef9f008001eb0083bf9f00f3b79f003b
:107b6400eafd2c000b002000000b2d00010020007a
:107b7400b0b79f00c1b79f0082f22c000300200021
:107b840092b79f00a3b79f004cb72c000d002000b4
:107b9400faaf9f008bb79f00104123001081fb00b8
:107ba400000320000091b90081022300010041007c
:107bb4003e970200000000002041230010007800de
:107bc40064006000040032007fa897008fb0970023
:107bd40084ba020000000000d0bc2a003e970200d4
:107be40000000000a92e23000e422300fb003700f2
:107bf400509c81000000e000420032000000e900d7
:107c0400509c8900c500dd00e9c078000104e00053
:107c1400140032000004eb0002978100031e2300cd
:107c2400817179004500dd0008004000694078005a
:107c3400d4950200000000000804e80000978100c9
:107c44000000e8000080fb0000978900509c810040
:107c5400c500dd0088804000e9c078000104e00030
:107c6400edff3a000000eb00509c8900250037002e
:107c74009e40780064c0600024003200124123005a
:107c84001280fb000880b9007a0040006a00780086
:107c9400000001000004e0001c0032001341230036
:107ca4001380fb000880b9008002b0000a00400085
:107cb4003e97020000000000d0bc2a003e9702005c
:107cc400000000001b97810000978100808f550001
:107cd4000e0032000d003200011e230061c07d0041
:107ce400d495020000000000f20f20008285650098
:107cf4008b05e800009781008b0f500003003200d1
:107d0400f5ff3700080320000a002300d89802007a
:107d1400000000000004e000d5ff32005e9902007c
:107d2400000000000004e000030032006299020039
:107d340000000000a9003700ec98020000000000d9
:107d44000081fb008001eb00f1072000810f51004e
:107d5400e08f5900a0003e0002600100930037004c
:107d64008c003700830037009b0037007d0037000c
:107d74008a0037008100370097003700770037000a
:107d840095003700870037009300370092003700d2
:107d9400840037007d0037008f00370079003700fa
:107da4008d0037008c0037008b0037008a003700c5
:107db40089003700880037008700370086003700c5
:107dc40085003700840037006800370082003700e0
:107dd40081003700800037007f0037007e003700c5
:107de4007d0037007c0037007b0037007a003700c5
:107df40079003700780037007700370076003700c5
:107e040075003700740037007300370072003700c4
:107e140071003700700037006f0037006e003700c4
:107e24006d0037006c0037006b0037006a003700c4
:107e340069003700680037006700370066003700c4
:107e440065003700640037006300370062003700c4
:107e540061003700600037005f0037005e003700c4
:107e64005d0037005c0037005b0037005a003700c4
:107e740059003700580037005700370056003700c4
:107e840055003700540037005300370052003700c4
:107e940051003700500037004f0037004e003700c4
:107ea4004d0037004c0037004b0037004a003700c4
:107eb40049003700480037004700370046003700c4
:107ec40045003700440037004300370042003700c4
:107ed40041003700400037003f0037003e003700c4
:107ee4003d0037003c0037003b0037003a003700c4
:107ef40039003700380037003700370036003700c4
:107f040035003700340037003300370032003700c3
:107f140031003700300037002f0037002e003700c3
:107f24002d0037002c0037002b0037002a003700c3
:107f340029003700280037002700370026003700c3
:107f440025003700240037002300370022003700c3
:107f540021003700200037000200370063f80700d3
:107f64001e00370082f807001c00370034f90700b0
:107f74001a00370018f907001800370076f70700d1
:107f840016003700c9f7070014003700ecf70700a4
:107f94001200370080f807001000370097f8070038
:107fa4000e003700d9f607000c003700812e23009d
:107fb4001140e80080487800f44f500007003a0070
:107fc400065d020000000000802e23000048eb0044
:107fd4001ec0b3005c013700a1f80700922e2300f5
:107fe4001204e00002ff320003978100f3b79f0000
:107ff4001097810080bf9f00020078000048eb00ca
:10800400004223001074a1002041230010007800d6
:10801400640060000047eb00ceef9f0008003200d0
:10802400ae520200000000003fb09700cfb09700ae
:10803400deba020000000000ceef9f000504370006
:1080440010978100011e2300614178000281fb002a
:108054008001eb00e1072000810f5100e08f5900ff
:10806400d5033e0002600100d6033700d203370077
:10807400d1033700d0033700cf033700ce033700d6
:10808400cd033700cc033700cb033700ca033700d6
:10809400cc033700c8033700c7033700c9033700d0
:1080a400c5033700c4033700c3033700c2033700d6
:1080b400c1033700c0033700bf033700be033700d6
:1080c400bd033700bc033700bb033700ba033700d6
:1080d400b9033700b8033700b7033700b6033700d6
:1080e400b5033700b4033700b603370096033700ef
:1080f40019023700100137001501370066013700f7
:1081040054013700ac033700f0013700aa033700ed
:10811400a9033700a8033700aa033700490337002f
:10812400620337002d0337006f0237006e023700f9
:108134006d0237006c0237006b0237006a023700a9
:1081440069023700680237006702370066023700a9
:10815400990337009803370073013700e3003700b1
:108164009503370048003700130137000f0137002b
:108174009103370073003700330137008e03370053
:108184004a0037008c0337008b0337008a0337001b
:10819400890337007f0037008600370086033700e5
:1081a4008503370084033700a800370082033700b3
:1081b400810337004c0137007f0337007e0337000b
:1081c4007d0337000e0137007b0337007a03370045
:1081d40079033700210237000d03370030023700de
:1081e400400337002403370073033700ec003700e3
:1081f400380037004b00370005013700b90037005d
:108204003a0037003c0037001600370021003700e1
:108214006903370055003700700037002b00370022
:10822400650337002d0037007600370062033700fe
:108234009b023700290137005f0337005e033700d4
:1082440028003700f00037005b0337005a0337007b
:108254005903370009023700a70037001902370015
:10826400a800370051fb07000047eb000000e000c6
:1082740055033a001297810082bf9f000397810043
:10828400f3b79f0050033700e8ba02000000000073
:108294004d03370045fd0700104123001004e000a2
:1082a4004903320006f90700470337001041230051
:1082b40011c0b30090cf100043033a0080c22a00db
:1082c40020980200000000003f033700acfb0700c9
:1082d4003d0337001ffc07003b03370067fc070022
:1082e4003903370085f80700370337004483020059
:1082f4000000000034033700104123001004e000a4
:1083040005003a00609a2c0001002000deba020049
:10831400000000002c03370030820200000000003f
:108324002903370000422300c1cfb30010c8600006
:1083340040b42c0001002000deba0200000000005e
:108344002103370000422300c1cfb30090c0600076
:108354000104a0000148780040b52c000100200071
:10836400deba0200000000001703370000422300b9
:10837400c1cfb30090c060000114a0000148780090
:1083840040bb2c0001002000deba02000000000007
:108394000d03370000422300104178006348710048
:1083a40040bc2c0001002000deba020000000000e6
:1083b40005033700004223001034a000e09c2c0089
:1083c4000100200084ba020000000000c0bc2a00a2
:1083d4002098020000000000fb0237000042230046
:1083e4001034a100a09b2c000100200084ba0200dc
:1083f40000000000c0bc2a00209802000000000019
:10840400f1023700104123001004e00005003a0097
:10841400609a2c0001002000deba02000000000077
:10842400e9023700e282a900e082a90040b62c00ec
:108434000100200084ba020000000000c0bc2a0031
:108444002098020000000000df02370010412300e2
:108454001004e00005003a00609a2c00010020009e
:10846400deba020000000000d702370000422300f9
:10847400104078007040600004003a00a07f2c0097
:1084840001002000deba020000000000e082a80023
:10849400e282a90040c12c000100200084ba02003d
:1084a40000000000c0bc2a00209802000000000068
:1084b40021e3a800500020004895020000000000bd
:1084c400f1042000810f500004003e00a0822c0023
:1084d40001002000deba02000000000021e3a90030
:1084e400b90237000cfd0700b70237000040eb006b
:1084f400f2f90700b402370010c0b300eff9070027
:10850400b1023700104123001004e00005003a00d6
:1085140011c0b30001407800dca502000000000097
:10852400a902370020a92c0001002000deba0200b5
:1085340000000000a4023700c0142d000100200038
:10854400deba02000000000098fc07009e0237001b
:1085540074bb0200000000000004e0009a02320034
:1085640011c0b300a07f24000148780000f22c0061
:1085740001002000deba02000000000040062000d6
:10858400aa95020000000000ea9402000000000026
:1085940058990200000000000000fe008a02370023
:1085a400248702000000000087023700e6860200ec
:1085b400000000008402370086f9070000047800f8
:1085c400c9bc2a000b0037000c00be0084ba0200ac
:1085d4000000000062870200000000000080fb0031
:1085e40095f60700090078002098020000000000ba
:1085f4000804e9000800e000f3ff3a0072023700c3
:1086040052f50700700237008df507006e0237003f
:1086140020d32c000100200084ba020000000000d6
:10862400fe96020000000000c0172d00010020008b
:1086340084ba020000000000c0bc2a002098020096
:108644000000000060023700f29802000000000001
:108654005d0237005ff907000004780040fe2c003b
:108664000100200084ba0200000000000800780025
:10867400b69602000000000080162d0001002000c4
:10868400deba02000000000008007800b495020081
:10869400000000004c0237004ef907000004780087
:1086a40040fe2c000100200084ba020000000000fb
:1086b40008007800b696020000000000e0162d00c5
:1086c40001002000deba020000000000080078006b
:1086d400aa950200000000003b023700204123005d
:1086e4001020a00038023700104123001004e000dd
:1086f40005003a00609a2c0001002000deba020056
:108704000000000030023700b287020000000000c1
:108714002d02370086cf510001003a00074178004e
:108724008100e8000600370012c0b30011002000e9
:10873400f50f2000041e2300e6c3b3008043eb00c2
:108744008081400085816100e4c179000304e00078
:10875400f0ff3a0003422300740020000411dd00fe
:10876400134278000474a10082497200220220009e
:10877400828f500002003400830078001174a0003e
:10878400014223001104e0000f0235000000e8005c
:10879400f90f2000090060001097890074f80700a1
:1087a400000478001097810089046000011e2300f2
:1087b40061c17c00d1c3b300814f510021003a0054
:1087c4008800e900e48f50001b003e000000e80030
:1087d4000080fb0010978900c540dd00902c230029
:1087e40080804000010178000000eb000042eb00b3
:1087f40003022000046978000000e800830f5000a1
:10880400fcff3a0010978100051e2300e4c3b30067
:10881400f30f200003003700826878000000e800ae
:108824000300600065417800844f5100faff3a006c
:1088340010978900e4013700004223001074a0005f
:10884400e10137000800e00015003a00ab2e2300d8
:108854001a002000a8c42a00d9bc2a000a407800c3
:10886400a896020000000000080078003e9702006d
:10887400000000000b0078003e970200000000009a
:108884000900780020980200000000000a05e800b2
:108894000b02b000e60f5500f0ff3a00ca013700a2
:1088a4000800e900e40f500005003e00c0bc2a00a7
:1088b4002098020000000000589c8900c201370083
:1088c400004223001074a000bf0137000000e8003c
:1088d400f80f2000080060001097890024f80700b2
:1088e40080047800e5f80700109781000804600010
:1088f400001e2300e0407c0090c2b30080cf5000f3
:108904000d003a00104123009080fb00000320007a
:108914000088b9007c00400001002300e1007800d9
:108924000900780001000100c0bc2a002098020060
:1089340000000000a4013700004223001074a000ce
:10894400a101370086cf510001003a0007417800a9
:108954008100e8000600370012c0b30011002000b7
:10896400f50f2000041e230026c2b3008043eb0051
:108974008081400085816100e4c179000304e00046
:10898400f0ff3a0001422300700020000011dd00d6
:10899400114078000074a100024070008048780003
:1089a40089013300a0fe2c000100200084ba0200db
:1089b4000000000020c2b300d495020000000000b3
:1089c400081e2300094223001b4123000a00230040
:1089d4001300370011978900d495020000000000ad
:1089e40010978100684078000080fb00994178006e
:1089f400e8c0610004003200f24123009240780094
:108a040070950200000000001b81fb0001032000a0
:108a14000191b90068014100ea00790001000100f8
:108a2400119781008100e8008180fb0068c0780014
:108a340022c2b300824f5000e6ff3a00119789002a
:108a440002407800d495020000000000c0bc2a0057
:108a540020980200000000005b0137001041230051
:108a64009080fb00000320000088b900020023006e
:108a74006200780000000100530137001041230018
:108a84009080fb00000320000088b9000080e8000b
:108a94000100230061007800000001004a01370052
:108aa400104123009080fb00000320000088b900df
:108ab4006400400001002300610078000000010010
:108ac40041013700104123009080fb000003200087
:108ad4000088b900660040000100230061007800ae
:108ae4000000010038013700a0fe2c000100200026
:108af40084ba0200000000009df70700800578009a
:108b0400109781000000e9000080fb0010978900a5
:108b140030f807000004780043f807000000e00084
:108b24000c003200f14123008048780011c0b300ea
:108b3400e80f500001003c008040eb00004223009d
:108b4400520020008208dd00104178000254a10088
:108b540001487100d8b79f00e8092d0009002000e2
:108b6400480037000b0078004a980200000000001b
:108b740001c2b3000342230013c0600005003a00a1
:108b840083c0b300f241230092cf110005003a00e4
:108b94000b00370001c1b300f041230090cf100057
:108ba40007003200b0c3b300d495020000000000f7
:108bb400f241230012407800a89602000000000051
:108bc400034223009341780068c06100060032002c
:108bd400f0412300904078000b007800709502006b
:108be4000000000080057800124123009280fb0001
:108bf400000320000088b90068004000030023003f
:108c0400e30078000b007800010001000005780003
:108c140000c2b300d49502000000000002c4b300f7
:108c24000142230011406100130032000800be001d
:108c340084ba02000000000003422300934178003c
:108c440068c0610006003200f041230090407800c3
:108c54000a0078007095020000000000000578000a
:108c64000a0078004a9802000000000000c2b30025
:108c7400d495020000000000dfb097008100e900f5
:108c8400d1b79f005fb197000200e000b5ff3a0042
:108c9400c0bc2a002098020000000000ca0037006f
:108ca400e0092d000100200084ba02000000000049
:108cb4007bf3070000457800c6f7070080047800be
:108cc400d9f707000000e0000c003200f141230056
:108cd4008048780011c0b300e80f500001003c0048
:108ce4008040eb0000422300520020008208dd0097
:108cf400104178000254a100014871000a04e00008
:108d0400040032000041230090417800c3ef9f002b
:108d14000a48e9000b4223000b04e9002400370051
:108d2400114123001180fb00020320000280b900de
:108d34006a00400003002300630078000000010083
:108d44001b417800e840610003003200984078003d
:108d540070950200000000004a9802000000000024
:108d640003c2b3001bc0610004003a0080c0b3001a
:108d7400984f100004003a000900370001c1b30005
:108d840098cf100006003200b0c3b300d49502009f
:108d94000000000018407800a896020000000000bf
:108da40000c2b300d4950200000000008904e90069
:108db4000900e000daff3a000a04e0000300320090
:108dc400004123004fe9970002487800c0bc2a0004
:108dd40020980200000000007b00370000ff2c00f8
:108de40001002000deba0200000000001041230050
:108df4009080fb00000320000088b9006c00400054
:108e04000100230061007800000001006e003700bb
:108e140060ff2c0001002000deba02000000000008
:108e2400104123009080fb00000320000088b9005b
:108e34006e00400001002300610078000000010082
:108e44006100370080e12c0001002000deba02003e
:108e540000000000104123009080fb00000320006c
:108e64000088b90070004000010023006100780010
:108e7400000001005400370020e22c000100200013
:108e8400deba020000000000104123009080fb00c5
:108e9400000320000088b900720040000100230094
:108ea400610078000000010047003700e0e02c007a
:108eb4000100200084ba02000000000010412300d9
:108ec4009080fb00000320000088b900740040007b
:108ed40001002300610078000000010056f407003f
:108ee400390037003bf7070000047800c0e22c008b
:108ef4000100200084ba020000000000080078008d
:108f04004a98020000000000194123000a002300cf
:108f1400070037009980fb00000320000088b90097
:108f2400760040006a007800000001000804e900af
:108f34000800e000f7ff3a00c0bc2a0020980200b5
:108f4400000000002000370022f70700000478002a
:108f54001fb09700afb0970084ba02000000000071
:108f6400194123000a0023000c0037009980fb00fc
:108f7400000320000088b900780040006a007800ef
:108f8400000001000080fb002bf4070000c2b300c6
:108f9400d4950200000000000804e9000800e00085
:108fa400f2ff3a0060cf2c0001002000deba02007c
:108fb4000000000004003700004223001074a000e9
:108fc400010037000047eb00109781000000e80023
:108fd4000080fb0010978900004223001004e00089
:108fe40016003d0040b82c000100200084ba0200a5
:108ff40000000000109781008fb99700808f510006
:109004000400310003405000a89602000000000054
:10901400040037008ff0970001405000a89602002a
:1090240000000000004223001074a100c0bc2a000c
:1090340020980200000000001ec0b30000978100c9
:1090440011978100808f5000020032000e04e0006e
